:100000000C9461000C9473000C9473000C947300B6
:100010000C9473000C9473000C9473000C94730094
:100020000C9473000C9473000C9473000C94730084
:100030000C9473000C9473000C9473000C94730074
:100040000C94F0000C9473000C9473000C947300E7
:100050000C9473000C9473000C9473000C94730054
:100060000C9473000C94730000000000250028001D
:100070002B0000000000240027002A0000000000E0
:1000800023002600290004040404040404040202DA
:100090000202020203030303030301020408102007
:1000A0004080010204081020010204081020000012
:1000B0000008000201000003040700000000000027
:1000C000000011241FBECFEFD8E0DEBFCDBF21E07E
:1000D000A0E0B1E001C01D92A930B207E1F70E9493
:1000E0003A010C94B0010C94000090E0FC01E25540
:1000F000FF4F2491FC01E656FF4F3491FC01EA5773
:10010000FF4FE491EE23C1F1222339F02330E9F0CF
:1001100090F4213001F1223011F1F0E0EE0FFF1FD9
:10012000E458FF4FA591B491EC91E32381E090E076
:1001300029F580E008952730A9F02830C9F024304F
:1001400061F7809180008F7D03C0809180008F7760
:1001500080938000E2CF84B58F7784BDDECF84B5F5
:100160008F7DFBCF8091B0008F778093B000D5CF8B
:100170008091B0008F7DF9CF80E090E00895CF931B
:10018000DF9390E0FC01E656FF4F24918A579F4F82
:10019000FC0184918823D1F090E0880F991FFC0125
:1001A000EE58FF4FA591B491FC01E859FF4FC5915E
:1001B000D49161110EC09FB7F8948C91E22FE09515
:1001C0008E238C932881E223E8839FBFDF91CF9118
:1001D00008958FB7F894EC91E22BEC938FBFF6CF94
:1001E0001F920F920FB60F9211242F933F938F936C
:1001F0009F93AF93BF938091050190910601A091C9
:100200000701B09108013091040123E0230F2D373D
:1002100058F50196A11DB11D20930401809305019D
:1002200090930601A0930701B0930801809100010B
:1002300090910101A0910201B09103010196A11DCD
:10024000B11D8093000190930101A0930201B0932E
:100250000301BF91AF919F918F913F912F910F908B
:100260000FBE0F901F90189526E8230F0296A11D30
:10027000B11DD2CF789484B5826084BD84B581608D
:1002800084BD85B5826085BD85B5816085BD809161
:100290006E00816080936E001092810080918100D9
:1002A00082608093810080918100816080938100D1
:1002B000809180008160809380008091B100846093
:1002C0008093B1008091B00081608093B0008091F4
:1002D0007A00846080937A0080917A0082608093B3
:1002E0007A0080917A00816080937A0080917A0010
:1002F000806880937A001092C10060E082E00E94E2
:10030000BF0060E083E00E94BF0060E084E00E94E4
:10031000BF0060E085E00E94BF0061E08AE00E94CB
:10032000BF0061E08BE00E94BF0061E08CE00E94B2
:10033000BF0061E08DE00E94BF00C0E0D0E082E03D
:100340000E94750083E00E94750084E00E947500A1
:1003500085E00E947500209791F30E940000EFCF86
:04036000F894FFCF3F
:00000001FF
