:100000000C9434000C9446000C9446000C9446006A
:100010000C9446000C9446000C9446000C94460048
:100020000C9446000C9446000C9446000C94460038
:100030000C9446000C9446000C9446000C94460028
:100040000C9448000C9446000C9446000C94460016
:100050000C9446000C9446000C9446000C94460008
:100060000C9446000C94460011241FBECFEFD8E03C
:10007000DEBFCDBF21E0A0E0B1E001C01D92A930FC
:10008000B207E1F70E9492000C948C010C940000DE
:100090001F920F920FB60F9211242F933F938F93BD
:1000A0009F93AF93BF938091050190910601A0911A
:1000B0000701B09108013091040123E0230F2D378F
:1000C00058F50196A11DB11D2093040180930501EF
:1000D00090930601A0930701B0930801809100015D
:1000E00090910101A0910201B09103010196A11D1F
:1000F000B11D8093000190930101A0930201B09380
:100100000301BF91AF919F918F913F912F910F90DC
:100110000FBE0F901F90189526E8230F0296A11D81
:10012000B11DD2CF789484B5826084BD84B58160DE
:1001300084BD85B5826085BD85B5816085BD8091B2
:100140006E00816080936E0010928100809181002A
:100150008260809381008091810081608093810022
:10016000809180008160809380008091B1008460E4
:100170008093B1008091B00081608093B000809145
:100180007A00846080937A0080917A008260809304
:100190007A0080917A00816080937A0080917A0061
:1001A000806880937A001092C10084B18C6384B916
:1001B0008AB1837C8AB9C0E0D0E039B1347089B1AA
:1001C00049B1407199B19072682F687083FF28C05F
:1001D00091114BC0411166C050E0332309F45EC059
:1001E000992309F465C081E0332309F468C021E054
:1001F000992309F476C091E0332309F472C05523A2
:1002000061F12A9A882359F12B9A222351F12C9AD1
:10021000992349F12D9A209781F20E940000CDCFB9
:10022000332359F041115FC050E0992391F080E0F1
:1002300051E021E09923D1F16CC051E04423E1F178
:1002400051E04423C9F180E09111F3CF21E080E037
:100250003BC0332379F180E029C02A98D3CF2B9873
:10026000D4CF2C98D5CF2D98D6CF442309F4B4CF32
:1002700051E0311101C050E0611107C0332309F38F
:10028000911136C081E020E01DC091111FC04423B0
:1002900089F080E020E03323C9F223C0992391F351
:1002A00081E00DC03111E7CF80E051E021E00CC0CA
:1002B000662379F280E0E7CF80E09923D9F320E04C
:1002C000911199CF61110BC091E099CF442309F4AA
:1002D0008ACF81E0662391F020E091111AC0332388
:1002E00099F390E08CCF81E051E0911107C0CBCF22
:1002F00021E081E0442309F47BCF81E0332309F43A
:1003000098CF992309F4BFCF21E0442309F473CF98
:0C03100020E04111E4CF6FCFF894FFCF44
:00000001FF
